{
  "contractName": "AxyToken",
  "abi": [
    {
      "inputs": [],
      "stateMutability": "nonpayable",
      "type": "constructor"
    },
    {
      "anonymous": false,
      "inputs": [
        {
          "indexed": true,
          "internalType": "address",
          "name": "owner",
          "type": "address"
        },
        {
          "indexed": true,
          "internalType": "address",
          "name": "spender",
          "type": "address"
        },
        {
          "indexed": false,
          "internalType": "uint256",
          "name": "value",
          "type": "uint256"
        }
      ],
      "name": "Approval",
      "type": "event"
    },
    {
      "anonymous": false,
      "inputs": [
        {
          "indexed": true,
          "internalType": "address",
          "name": "from",
          "type": "address"
        },
        {
          "indexed": true,
          "internalType": "address",
          "name": "to",
          "type": "address"
        },
        {
          "indexed": false,
          "internalType": "uint256",
          "name": "value",
          "type": "uint256"
        }
      ],
      "name": "Transfer",
      "type": "event"
    },
    {
      "stateMutability": "payable",
      "type": "fallback",
      "payable": true
    },
    {
      "inputs": [
        {
          "internalType": "address",
          "name": "owner",
          "type": "address"
        },
        {
          "internalType": "address",
          "name": "spender",
          "type": "address"
        }
      ],
      "name": "allowance",
      "outputs": [
        {
          "internalType": "uint256",
          "name": "",
          "type": "uint256"
        }
      ],
      "stateMutability": "view",
      "type": "function",
      "constant": true
    },
    {
      "inputs": [
        {
          "internalType": "address",
          "name": "spender",
          "type": "address"
        },
        {
          "internalType": "uint256",
          "name": "amount",
          "type": "uint256"
        }
      ],
      "name": "approve",
      "outputs": [
        {
          "internalType": "bool",
          "name": "",
          "type": "bool"
        }
      ],
      "stateMutability": "nonpayable",
      "type": "function"
    },
    {
      "inputs": [
        {
          "internalType": "address",
          "name": "account",
          "type": "address"
        }
      ],
      "name": "balanceOf",
      "outputs": [
        {
          "internalType": "uint256",
          "name": "",
          "type": "uint256"
        }
      ],
      "stateMutability": "view",
      "type": "function",
      "constant": true
    },
    {
      "inputs": [],
      "name": "decimals",
      "outputs": [
        {
          "internalType": "uint8",
          "name": "",
          "type": "uint8"
        }
      ],
      "stateMutability": "view",
      "type": "function",
      "constant": true
    },
    {
      "inputs": [
        {
          "internalType": "address",
          "name": "spender",
          "type": "address"
        },
        {
          "internalType": "uint256",
          "name": "subtractedValue",
          "type": "uint256"
        }
      ],
      "name": "decreaseAllowance",
      "outputs": [
        {
          "internalType": "bool",
          "name": "",
          "type": "bool"
        }
      ],
      "stateMutability": "nonpayable",
      "type": "function"
    },
    {
      "inputs": [
        {
          "internalType": "address",
          "name": "spender",
          "type": "address"
        },
        {
          "internalType": "uint256",
          "name": "addedValue",
          "type": "uint256"
        }
      ],
      "name": "increaseAllowance",
      "outputs": [
        {
          "internalType": "bool",
          "name": "",
          "type": "bool"
        }
      ],
      "stateMutability": "nonpayable",
      "type": "function"
    },
    {
      "inputs": [],
      "name": "name",
      "outputs": [
        {
          "internalType": "string",
          "name": "",
          "type": "string"
        }
      ],
      "stateMutability": "view",
      "type": "function",
      "constant": true
    },
    {
      "inputs": [],
      "name": "rate",
      "outputs": [
        {
          "internalType": "uint256",
          "name": "",
          "type": "uint256"
        }
      ],
      "stateMutability": "view",
      "type": "function",
      "constant": true
    },
    {
      "inputs": [],
      "name": "symbol",
      "outputs": [
        {
          "internalType": "string",
          "name": "",
          "type": "string"
        }
      ],
      "stateMutability": "view",
      "type": "function",
      "constant": true
    },
    {
      "inputs": [],
      "name": "totalSupply",
      "outputs": [
        {
          "internalType": "uint256",
          "name": "",
          "type": "uint256"
        }
      ],
      "stateMutability": "view",
      "type": "function",
      "constant": true
    },
    {
      "inputs": [
        {
          "internalType": "address",
          "name": "recipient",
          "type": "address"
        },
        {
          "internalType": "uint256",
          "name": "amount",
          "type": "uint256"
        }
      ],
      "name": "transfer",
      "outputs": [
        {
          "internalType": "bool",
          "name": "",
          "type": "bool"
        }
      ],
      "stateMutability": "nonpayable",
      "type": "function"
    },
    {
      "inputs": [
        {
          "internalType": "address",
          "name": "sender",
          "type": "address"
        },
        {
          "internalType": "address",
          "name": "recipient",
          "type": "address"
        },
        {
          "internalType": "uint256",
          "name": "amount",
          "type": "uint256"
        }
      ],
      "name": "transferFrom",
      "outputs": [
        {
          "internalType": "bool",
          "name": "",
          "type": "bool"
        }
      ],
      "stateMutability": "nonpayable",
      "type": "function"
    },
    {
      "stateMutability": "payable",
      "type": "receive",
      "payable": true
    },
    {
      "inputs": [
        {
          "internalType": "address",
          "name": "new_Owner",
          "type": "address"
        }
      ],
      "name": "newOwner",
      "outputs": [],
      "stateMutability": "nonpayable",
      "type": "function"
    },
    {
      "inputs": [
        {
          "internalType": "address",
          "name": "_user",
          "type": "address"
        }
      ],
      "name": "_addApprover",
      "outputs": [],
      "stateMutability": "nonpayable",
      "type": "function"
    },
    {
      "inputs": [
        {
          "internalType": "address",
          "name": "_user",
          "type": "address"
        }
      ],
      "name": "_removeApprover",
      "outputs": [],
      "stateMutability": "nonpayable",
      "type": "function"
    },
    {
      "inputs": [
        {
          "internalType": "uint256",
          "name": "_rate",
          "type": "uint256"
        }
      ],
      "name": "pricing",
      "outputs": [],
      "stateMutability": "nonpayable",
      "type": "function"
    },
    {
      "inputs": [],
      "name": "buyTokens",
      "outputs": [],
      "stateMutability": "payable",
      "type": "function",
      "payable": true
    },
    {
      "inputs": [
        {
          "internalType": "uint256",
          "name": "returned",
          "type": "uint256"
        }
      ],
      "name": "returnTokens",
      "outputs": [],
      "stateMutability": "payable",
      "type": "function",
      "payable": true
    }
  ],
  "bytecode": "0x60806040527116f578c4e0a060b5be2947b3c800000000006007553480156200002757600080fd5b506040518060400160405280600381526020017f61787900000000000000000000000000000000000000000000000000000000008152506040518060400160405280600381526020017f41585900000000000000000000000000000000000000000000000000000000008152508160039080519060200190620000ac929190620002b6565b508060049080519060200190620000c5929190620002b6565b505050620000dd33620f42406200013360201b60201c565b60016006819055504260088190555033600560006101000a81548173ffffffffffffffffffffffffffffffffffffffff021916908373ffffffffffffffffffffffffffffffffffffffff16021790555062000512565b600073ffffffffffffffffffffffffffffffffffffffff168273ffffffffffffffffffffffffffffffffffffffff161415620001a6576040517f08c379a00000000000000000000000000000000000000000000000000000000081526004016200019d906200039e565b60405180910390fd5b620001ba60008383620002ac60201b60201c565b8060026000828254620001ce9190620003ee565b92505081905550806000808473ffffffffffffffffffffffffffffffffffffffff1673ffffffffffffffffffffffffffffffffffffffff1681526020019081526020016000206000828254620002259190620003ee565b925050819055508173ffffffffffffffffffffffffffffffffffffffff16600073ffffffffffffffffffffffffffffffffffffffff167fddf252ad1be2c89b69c2b068fc378daa952ba7f163c4a11628f55a4df523b3ef836040516200028c9190620003c0565b60405180910390a3620002a860008383620002b160201b60201c565b5050565b505050565b505050565b828054620002c49062000455565b90600052602060002090601f016020900481019282620002e8576000855562000334565b82601f106200030357805160ff191683800117855562000334565b8280016001018555821562000334579182015b828111156200033357825182559160200191906001019062000316565b5b50905062000343919062000347565b5090565b5b808211156200036257600081600090555060010162000348565b5090565b600062000375601f83620003dd565b91506200038282620004e9565b602082019050919050565b62000398816200044b565b82525050565b60006020820190508181036000830152620003b98162000366565b9050919050565b6000602082019050620003d760008301846200038d565b92915050565b600082825260208201905092915050565b6000620003fb826200044b565b915062000408836200044b565b9250827fffffffffffffffffffffffffffffffffffffffffffffffffffffffffffffffff0382111562000440576200043f6200048b565b5b828201905092915050565b6000819050919050565b600060028204905060018216806200046e57607f821691505b60208210811415620004855762000484620004ba565b5b50919050565b7f4e487b7100000000000000000000000000000000000000000000000000000000600052601160045260246000fd5b7f4e487b7100000000000000000000000000000000000000000000000000000000600052602260045260246000fd5b7f45524332303a206d696e7420746f20746865207a65726f206164647265737300600082015250565b611fd380620005226000396000f3fe60806040526004361061010d5760003560e01c8063700af8c211610095578063a457c2d711610064578063a457c2d7146103af578063a877c66b146103ec578063a9059cbb14610415578063d0febe4c14610452578063dd62ed3e1461045c57610114565b8063700af8c2146102f557806370a082311461031e578063859524541461035b57806395d89b411461038457610114565b80632c4e722e116100dc5780632c4e722e1461021d578063313ce5671461024857806339509351146102735780633ae1786f146102b05780636945d800146102cc57610114565b806306fdde031461014d578063095ea7b31461017857806318160ddd146101b557806323b872dd146101e057610114565b3661011457005b6000341161012157600080fd5b61014b33670de0b6b3a76400006006543461013c9190611a9c565b6101469190611a9c565b610499565b005b34801561015957600080fd5b506101626105f9565b60405161016f9190611852565b60405180910390f35b34801561018457600080fd5b5061019f600480360381019061019a91906115c8565b61068b565b6040516101ac9190611837565b60405180910390f35b3480156101c157600080fd5b506101ca6106a9565b6040516101d791906119f4565b60405180910390f35b3480156101ec57600080fd5b5061020760048036038101906102029190611579565b6106b3565b6040516102149190611837565b60405180910390f35b34801561022957600080fd5b506102326107ab565b60405161023f91906119f4565b60405180910390f35b34801561025457600080fd5b5061025d6107b1565b60405161026a9190611a0f565b60405180910390f35b34801561027f57600080fd5b5061029a600480360381019061029591906115c8565b6107ba565b6040516102a79190611837565b60405180910390f35b6102ca60048036038101906102c59190611604565b610866565b005b3480156102d857600080fd5b506102f360048036038101906102ee9190611604565b6109b9565b005b34801561030157600080fd5b5061031c60048036038101906103179190611514565b610a4f565b005b34801561032a57600080fd5b5061034560048036038101906103409190611514565b610b04565b60405161035291906119f4565b60405180910390f35b34801561036757600080fd5b50610382600480360381019061037d9190611514565b610b4c565b005b34801561039057600080fd5b50610399610c22565b6040516103a69190611852565b60405180910390f35b3480156103bb57600080fd5b506103d660048036038101906103d191906115c8565b610cb4565b6040516103e39190611837565b60405180910390f35b3480156103f857600080fd5b50610413600480360381019061040e9190611514565b610d9f565b005b34801561042157600080fd5b5061043c600480360381019061043791906115c8565b610e54565b6040516104499190611837565b60405180910390f35b61045a610e72565b005b34801561046857600080fd5b50610483600480360381019061047e919061153d565b610f67565b60405161049091906119f4565b60405180910390f35b600073ffffffffffffffffffffffffffffffffffffffff168273ffffffffffffffffffffffffffffffffffffffff161415610509576040517f08c379a0000000000000000000000000000000000000000000000000000000008152600401610500906119d4565b60405180910390fd5b61051560008383610fee565b80600260008282546105279190611a46565b92505081905550806000808473ffffffffffffffffffffffffffffffffffffffff1673ffffffffffffffffffffffffffffffffffffffff168152602001908152602001600020600082825461057c9190611a46565b925050819055508173ffffffffffffffffffffffffffffffffffffffff16600073ffffffffffffffffffffffffffffffffffffffff167fddf252ad1be2c89b69c2b068fc378daa952ba7f163c4a11628f55a4df523b3ef836040516105e191906119f4565b60405180910390a36105f560008383610ff3565b5050565b60606003805461060890611bb2565b80601f016020809104026020016040519081016040528092919081815260200182805461063490611bb2565b80156106815780601f1061065657610100808354040283529160200191610681565b820191906000526020600020905b81548152906001019060200180831161066457829003601f168201915b5050505050905090565b600061069f610698610ff8565b8484611000565b6001905092915050565b6000600254905090565b60006106c08484846111cb565b6000600160008673ffffffffffffffffffffffffffffffffffffffff1673ffffffffffffffffffffffffffffffffffffffff168152602001908152602001600020600061070b610ff8565b73ffffffffffffffffffffffffffffffffffffffff1673ffffffffffffffffffffffffffffffffffffffff1681526020019081526020016000205490508281101561078b576040517f08c379a000000000000000000000000000000000000000000000000000000000815260040161078290611914565b60405180910390fd5b61079f85610797610ff8565b858403611000565b60019150509392505050565b60065481565b60006012905090565b600061085c6107c7610ff8565b8484600160006107d5610ff8565b73ffffffffffffffffffffffffffffffffffffffff1673ffffffffffffffffffffffffffffffffffffffff16815260200190815260200160002060008873ffffffffffffffffffffffffffffffffffffffff1673ffffffffffffffffffffffffffffffffffffffff168152602001908152602001600020546108579190611a46565b611000565b6001905092915050565b6000811180156108b55750600b60003373ffffffffffffffffffffffffffffffffffffffff1673ffffffffffffffffffffffffffffffffffffffff168152602001908152602001600020548111155b6108f4576040517f08c379a00000000000000000000000000000000000000000000000000000000081526004016108eb90611954565b60405180910390fd5b6108ff3330836111cb565b3373ffffffffffffffffffffffffffffffffffffffff166108fc826006546109279190611a9c565b9081150290604051600060405180830381858888f19350505050158015610952573d6000803e3d6000fd5b50600654346109619190611a9c565b600b60003373ffffffffffffffffffffffffffffffffffffffff1673ffffffffffffffffffffffffffffffffffffffff16815260200190815260200160002060008282546109af9190611af6565b9250508190555050565b600a60003373ffffffffffffffffffffffffffffffffffffffff1673ffffffffffffffffffffffffffffffffffffffff16815260200190815260200160002060009054906101000a900460ff16610a45576040517f08c379a0000000000000000000000000000000000000000000000000000000008152600401610a3c90611994565b60405180910390fd5b8060068190555050565b600560009054906101000a900473ffffffffffffffffffffffffffffffffffffffff1673ffffffffffffffffffffffffffffffffffffffff163373ffffffffffffffffffffffffffffffffffffffff1614610aa957600080fd5b6000600a60008373ffffffffffffffffffffffffffffffffffffffff1673ffffffffffffffffffffffffffffffffffffffff16815260200190815260200160002060006101000a81548160ff02191690831515021790555050565b60008060008373ffffffffffffffffffffffffffffffffffffffff1673ffffffffffffffffffffffffffffffffffffffff168152602001908152602001600020549050919050565b600560009054906101000a900473ffffffffffffffffffffffffffffffffffffffff1673ffffffffffffffffffffffffffffffffffffffff163373ffffffffffffffffffffffffffffffffffffffff1614610ba657600080fd5b600073ffffffffffffffffffffffffffffffffffffffff168173ffffffffffffffffffffffffffffffffffffffff161415610c16576040517f08c379a0000000000000000000000000000000000000000000000000000000008152600401610c0d90611894565b60405180910390fd5b610c1f8161144c565b50565b606060048054610c3190611bb2565b80601f0160208091040260200160405190810160405280929190818152602001828054610c5d90611bb2565b8015610caa5780601f10610c7f57610100808354040283529160200191610caa565b820191906000526020600020905b815481529060010190602001808311610c8d57829003601f168201915b5050505050905090565b60008060016000610cc3610ff8565b73ffffffffffffffffffffffffffffffffffffffff1673ffffffffffffffffffffffffffffffffffffffff16815260200190815260200160002060008573ffffffffffffffffffffffffffffffffffffffff1673ffffffffffffffffffffffffffffffffffffffff16815260200190815260200160002054905082811015610d80576040517f08c379a0000000000000000000000000000000000000000000000000000000008152600401610d77906119b4565b60405180910390fd5b610d94610d8b610ff8565b85858403611000565b600191505092915050565b600560009054906101000a900473ffffffffffffffffffffffffffffffffffffffff1673ffffffffffffffffffffffffffffffffffffffff163373ffffffffffffffffffffffffffffffffffffffff1614610df957600080fd5b6001600a60008373ffffffffffffffffffffffffffffffffffffffff1673ffffffffffffffffffffffffffffffffffffffff16815260200190815260200160002060006101000a81548160ff02191690831515021790555050565b6000610e68610e61610ff8565b84846111cb565b6001905092915050565b60075460065434610e839190611a9c565b610e8b6106a9565b610e959190611a46565b11158015610ea35750600034115b610ee2576040517f08c379a0000000000000000000000000000000000000000000000000000000008152600401610ed9906118f4565b60405180910390fd5b60065434610ef09190611a9c565b600c81905550610f0233600c54610499565b60065434610f109190611a9c565b600b60003373ffffffffffffffffffffffffffffffffffffffff1673ffffffffffffffffffffffffffffffffffffffff1681526020019081526020016000206000828254610f5e9190611a46565b92505081905550565b6000600160008473ffffffffffffffffffffffffffffffffffffffff1673ffffffffffffffffffffffffffffffffffffffff16815260200190815260200160002060008373ffffffffffffffffffffffffffffffffffffffff1673ffffffffffffffffffffffffffffffffffffffff16815260200190815260200160002054905092915050565b505050565b505050565b600033905090565b600073ffffffffffffffffffffffffffffffffffffffff168373ffffffffffffffffffffffffffffffffffffffff161415611070576040517f08c379a000000000000000000000000000000000000000000000000000000000815260040161106790611974565b60405180910390fd5b600073ffffffffffffffffffffffffffffffffffffffff168273ffffffffffffffffffffffffffffffffffffffff1614156110e0576040517f08c379a00000000000000000000000000000000000000000000000000000000081526004016110d7906118b4565b60405180910390fd5b80600160008573ffffffffffffffffffffffffffffffffffffffff1673ffffffffffffffffffffffffffffffffffffffff16815260200190815260200160002060008473ffffffffffffffffffffffffffffffffffffffff1673ffffffffffffffffffffffffffffffffffffffff168152602001908152602001600020819055508173ffffffffffffffffffffffffffffffffffffffff168373ffffffffffffffffffffffffffffffffffffffff167f8c5be1e5ebec7d5bd14f71427d1e84f3dd0314c0f7b2291e5b200ac8c7c3b925836040516111be91906119f4565b60405180910390a3505050565b600073ffffffffffffffffffffffffffffffffffffffff168373ffffffffffffffffffffffffffffffffffffffff16141561123b576040517f08c379a000000000000000000000000000000000000000000000000000000000815260040161123290611934565b60405180910390fd5b600073ffffffffffffffffffffffffffffffffffffffff168273ffffffffffffffffffffffffffffffffffffffff1614156112ab576040517f08c379a00000000000000000000000000000000000000000000000000000000081526004016112a290611874565b60405180910390fd5b6112b6838383610fee565b60008060008573ffffffffffffffffffffffffffffffffffffffff1673ffffffffffffffffffffffffffffffffffffffff1681526020019081526020016000205490508181101561133c576040517f08c379a0000000000000000000000000000000000000000000000000000000008152600401611333906118d4565b60405180910390fd5b8181036000808673ffffffffffffffffffffffffffffffffffffffff1673ffffffffffffffffffffffffffffffffffffffff16815260200190815260200160002081905550816000808573ffffffffffffffffffffffffffffffffffffffff1673ffffffffffffffffffffffffffffffffffffffff16815260200190815260200160002060008282546113cf9190611a46565b925050819055508273ffffffffffffffffffffffffffffffffffffffff168473ffffffffffffffffffffffffffffffffffffffff167fddf252ad1be2c89b69c2b068fc378daa952ba7f163c4a11628f55a4df523b3ef8460405161143391906119f4565b60405180910390a3611446848484610ff3565b50505050565b600560009054906101000a900473ffffffffffffffffffffffffffffffffffffffff1673ffffffffffffffffffffffffffffffffffffffff163373ffffffffffffffffffffffffffffffffffffffff16146114a657600080fd5b80600560006101000a81548173ffffffffffffffffffffffffffffffffffffffff021916908373ffffffffffffffffffffffffffffffffffffffff16021790555050565b6000813590506114f981611f6f565b92915050565b60008135905061150e81611f86565b92915050565b60006020828403121561152657600080fd5b6000611534848285016114ea565b91505092915050565b6000806040838503121561155057600080fd5b600061155e858286016114ea565b925050602061156f858286016114ea565b9150509250929050565b60008060006060848603121561158e57600080fd5b600061159c868287016114ea565b93505060206115ad868287016114ea565b92505060406115be868287016114ff565b9150509250925092565b600080604083850312156115db57600080fd5b60006115e9858286016114ea565b92505060206115fa858286016114ff565b9150509250929050565b60006020828403121561161657600080fd5b6000611624848285016114ff565b91505092915050565b61163681611b3c565b82525050565b600061164782611a2a565b6116518185611a35565b9350611661818560208601611b7f565b61166a81611c42565b840191505092915050565b6000611682602383611a35565b915061168d82611c53565b604082019050919050565b60006116a5602683611a35565b91506116b082611ca2565b604082019050919050565b60006116c8602283611a35565b91506116d382611cf1565b604082019050919050565b60006116eb602683611a35565b91506116f682611d40565b604082019050919050565b600061170e601f83611a35565b915061171982611d8f565b602082019050919050565b6000611731602883611a35565b915061173c82611db8565b604082019050919050565b6000611754602583611a35565b915061175f82611e07565b604082019050919050565b6000611777601283611a35565b915061178282611e56565b602082019050919050565b600061179a602483611a35565b91506117a582611e7f565b604082019050919050565b60006117bd601e83611a35565b91506117c882611ece565b602082019050919050565b60006117e0602583611a35565b91506117eb82611ef7565b604082019050919050565b6000611803601f83611a35565b915061180e82611f46565b602082019050919050565b61182281611b68565b82525050565b61183181611b72565b82525050565b600060208201905061184c600083018461162d565b92915050565b6000602082019050818103600083015261186c818461163c565b905092915050565b6000602082019050818103600083015261188d81611675565b9050919050565b600060208201905081810360008301526118ad81611698565b9050919050565b600060208201905081810360008301526118cd816116bb565b9050919050565b600060208201905081810360008301526118ed816116de565b9050919050565b6000602082019050818103600083015261190d81611701565b9050919050565b6000602082019050818103600083015261192d81611724565b9050919050565b6000602082019050818103600083015261194d81611747565b9050919050565b6000602082019050818103600083015261196d8161176a565b9050919050565b6000602082019050818103600083015261198d8161178d565b9050919050565b600060208201905081810360008301526119ad816117b0565b9050919050565b600060208201905081810360008301526119cd816117d3565b9050919050565b600060208201905081810360008301526119ed816117f6565b9050919050565b6000602082019050611a096000830184611819565b92915050565b6000602082019050611a246000830184611828565b92915050565b600081519050919050565b600082825260208201905092915050565b6000611a5182611b68565b9150611a5c83611b68565b9250827fffffffffffffffffffffffffffffffffffffffffffffffffffffffffffffffff03821115611a9157611a90611be4565b5b828201905092915050565b6000611aa782611b68565b9150611ab283611b68565b9250817fffffffffffffffffffffffffffffffffffffffffffffffffffffffffffffffff0483118215151615611aeb57611aea611be4565b5b828202905092915050565b6000611b0182611b68565b9150611b0c83611b68565b925082821015611b1f57611b1e611be4565b5b828203905092915050565b6000611b3582611b48565b9050919050565b60008115159050919050565b600073ffffffffffffffffffffffffffffffffffffffff82169050919050565b6000819050919050565b600060ff82169050919050565b60005b83811015611b9d578082015181840152602081019050611b82565b83811115611bac576000848401525b50505050565b60006002820490506001821680611bca57607f821691505b60208210811415611bde57611bdd611c13565b5b50919050565b7f4e487b7100000000000000000000000000000000000000000000000000000000600052601160045260246000fd5b7f4e487b7100000000000000000000000000000000000000000000000000000000600052602260045260246000fd5b6000601f19601f8301169050919050565b7f45524332303a207472616e7366657220746f20746865207a65726f206164647260008201527f6573730000000000000000000000000000000000000000000000000000000000602082015250565b7f4f776e61626c653a206e6577206f776e657220697320746865207a65726f206160008201527f6464726573730000000000000000000000000000000000000000000000000000602082015250565b7f45524332303a20617070726f766520746f20746865207a65726f20616464726560008201527f7373000000000000000000000000000000000000000000000000000000000000602082015250565b7f45524332303a207472616e7366657220616d6f756e742065786365656473206260008201527f616c616e63650000000000000000000000000000000000000000000000000000602082015250565b7f45524332304361707065643a20546f6b656e2043617020657863656564656400600082015250565b7f45524332303a207472616e7366657220616d6f756e742065786365656473206160008201527f6c6c6f77616e6365000000000000000000000000000000000000000000000000602082015250565b7f45524332303a207472616e736665722066726f6d20746865207a65726f20616460008201527f6472657373000000000000000000000000000000000000000000000000000000602082015250565b7f546f6b656e205761707369204e69736874610000000000000000000000000000600082015250565b7f45524332303a20617070726f76652066726f6d20746865207a65726f2061646460008201527f7265737300000000000000000000000000000000000000000000000000000000602082015250565b7f55736572206e6f7420696e2074686520617070726f76657273206c6973740000600082015250565b7f45524332303a2064656372656173656420616c6c6f77616e63652062656c6f7760008201527f207a65726f000000000000000000000000000000000000000000000000000000602082015250565b7f45524332303a206d696e7420746f20746865207a65726f206164647265737300600082015250565b611f7881611b2a565b8114611f8357600080fd5b50565b611f8f81611b68565b8114611f9a57600080fd5b5056fea264697066735822122069ba3c8a4d402de3ba08d32f80340aa08309c1889f7e3b50c840d6484600294564736f6c63430008040033",
  "immutableReferences": {},
  "source": "//SPDX-License-Identifier: Unlicense\r\n\r\npragma solidity ^0.8.4;\r\n\r\n/* Please complete the ERC20 token with the following extensions;\r\n1. Owner can transfer the ownership of the Token Contract.\r\n2. Owner can approve or delegate anybody to manage the pricing of tokens.\r\n3. Update pricing method to allow owner and approver to change the price of the token\r\n4. Add the ability that Token Holder can return the Token and get back the Ether based on the current price.\r\n*/\r\n\r\n// ==========================================================================================================\r\n\r\nimport '@openzeppelin/contracts/token/ERC20/ERC20.sol';\r\n\r\ncontract AxyToken is ERC20{\r\n\r\n    address _owner;\r\n    uint public rate;\r\n    uint private tokenCap = 2000000 * 100 ** 18;\r\n    uint private deployedtime;\r\n    address tokenAddress;\r\n    mapping (address => bool) approvedUsers;\r\n    mapping (address => uint) tokenHolders;\r\n    uint boughtTokens;\r\n    \r\n  constructor() ERC20(\"axy\", \"AXY\") {\r\n        _mint(msg.sender, 1000000  );\r\n        rate = 1;\r\n        deployedtime =  block.timestamp;\r\n        // IERC20 tcontract = IERC20(tokenAddress);\r\n        _owner = msg.sender;\r\n    }\r\n    \r\n      modifier etherValue {\r\n      require( msg.value > 0);  \r\n      _;\r\n  }\r\n  \r\n    modifier _onlyOwner() {\r\n    require(msg.sender == _owner);\r\n    _;\r\n}\r\n\r\nmodifier _onlyAllowed() {\r\n    require(approvedUsers[msg.sender],\"User not in the approvers list\");\r\n    _;\r\n}\r\n   // =============================================================================================================== //\r\n   /* 1. Owner can transfer the ownership of the Token Contract. */\r\n  \r\n  function _transferOwnership(address _newOwner) internal _onlyOwner{\r\n      _owner = _newOwner;\r\n  }\r\n  \r\n  function newOwner(address new_Owner) public  _onlyOwner {\r\n    require(new_Owner != address(0), \"Ownable: new owner is the zero address\");\r\n    _transferOwnership(new_Owner);\r\n}\r\n   // =============================================================================================================== //\r\n   /* 2. Owner can approve or delegate anybody to manage the pricing of tokens. */\r\n   // __ Function to add addresses to the mapping___\r\n    function _addApprover(address _user) public _onlyOwner {\r\n      approvedUsers[_user] = true;\r\n  }\r\n  \r\n    // __ Function to remove addresses to the mapping___\r\n    function _removeApprover(address _user) public _onlyOwner {\r\n      approvedUsers[_user] = false;\r\n  }\r\n   // =============================================================================================================== //\r\n   /* 3. Update pricing method to allow owner and approver to change the price of the token*/\r\n   // ___ user from mapping checked and if true then the rate can be change, else not____\r\n    function pricing(uint _rate) public _onlyAllowed{\r\n    rate = _rate ;\r\n  }\r\n  \r\n  // =============================================================================================================== //\r\n  /* 4. Add the ability that Token Holder can return the Token and get back the Ether based on the current price. */\r\n  \r\n  function buyTokens() payable external {\r\n    require(ERC20.totalSupply() + msg.value * rate <= tokenCap && msg.value > 0 , \"ERC20Capped: Token Cap exceeded\");\r\n    boughtTokens = msg.value * rate;\r\n    _mint(msg.sender, boughtTokens );\r\n    tokenHolders[msg.sender] += msg.value * rate;\r\n  }\r\n  \r\n\r\n  function returnTokens(uint returned) payable external {\r\n    require(returned > 0 && returned <= tokenHolders[msg.sender], \"Token Wapsi Nishta\");\r\n    _transfer(msg.sender, address(this), (returned));\r\n    payable(msg.sender).transfer(rate*returned);\r\n    tokenHolders[msg.sender] -= msg.value * rate ;\r\n  }\r\n  \r\n    // ____________________ Fallback ____________________\r\n  \r\n  fallback() external payable etherValue(){\r\n      _mint(msg.sender, msg.value * rate * 10 ** 18);\r\n  }\r\n\r\n   receive() external payable{\r\n    }\r\n    \r\n}",
  "sourcePath": "D:\\25 - Testing Q3\\Assignments\\TruffleAssignment3C\\contracts\\AxyToken.sol",
  "compiler": {
    "name": "solc",
    "version": "0.8.4+commit.c7e474f2.Emscripten.clang"
  },
  "schemaVersion": "3.4.3",
  "updatedAt": "2021-09-07T15:13:23.018Z",
  "networkType": "ethereum",
  "devdoc": {
    "kind": "dev",
    "methods": {
      "allowance(address,address)": {
        "details": "See {IERC20-allowance}."
      },
      "approve(address,uint256)": {
        "details": "See {IERC20-approve}. Requirements: - `spender` cannot be the zero address."
      },
      "balanceOf(address)": {
        "details": "See {IERC20-balanceOf}."
      },
      "decimals()": {
        "details": "Returns the number of decimals used to get its user representation. For example, if `decimals` equals `2`, a balance of `505` tokens should be displayed to a user as `5.05` (`505 / 10 ** 2`). Tokens usually opt for a value of 18, imitating the relationship between Ether and Wei. This is the value {ERC20} uses, unless this function is overridden; NOTE: This information is only used for _display_ purposes: it in no way affects any of the arithmetic of the contract, including {IERC20-balanceOf} and {IERC20-transfer}."
      },
      "decreaseAllowance(address,uint256)": {
        "details": "Atomically decreases the allowance granted to `spender` by the caller. This is an alternative to {approve} that can be used as a mitigation for problems described in {IERC20-approve}. Emits an {Approval} event indicating the updated allowance. Requirements: - `spender` cannot be the zero address. - `spender` must have allowance for the caller of at least `subtractedValue`."
      },
      "increaseAllowance(address,uint256)": {
        "details": "Atomically increases the allowance granted to `spender` by the caller. This is an alternative to {approve} that can be used as a mitigation for problems described in {IERC20-approve}. Emits an {Approval} event indicating the updated allowance. Requirements: - `spender` cannot be the zero address."
      },
      "name()": {
        "details": "Returns the name of the token."
      },
      "symbol()": {
        "details": "Returns the symbol of the token, usually a shorter version of the name."
      },
      "totalSupply()": {
        "details": "See {IERC20-totalSupply}."
      },
      "transfer(address,uint256)": {
        "details": "See {IERC20-transfer}. Requirements: - `recipient` cannot be the zero address. - the caller must have a balance of at least `amount`."
      },
      "transferFrom(address,address,uint256)": {
        "details": "See {IERC20-transferFrom}. Emits an {Approval} event indicating the updated allowance. This is not required by the EIP. See the note at the beginning of {ERC20}. Requirements: - `sender` and `recipient` cannot be the zero address. - `sender` must have a balance of at least `amount`. - the caller must have allowance for ``sender``'s tokens of at least `amount`."
      }
    },
    "version": 1
  },
  "userdoc": {
    "kind": "user",
    "methods": {},
    "version": 1
  }
}